:030000000209935F
:0C099300787FE4F6D8FD75810A02089414
:0609A70075696F39300094
:1008940075080F1209831209047BFF7A0979A712DC
:1008A40009707FE87E031208E67F0F12095D7FE876
:1008B4007E031208E67F0F1209377FE87E031208D1
:0308C400E680D6F5
:10098300758901758CFF758A9CD2AFD2A9D28C224E
:03000B0002085C8C
:10085C00C0E0C0D0C28C758CFF758A9CD28C050907
:10086C00E509C394644003750900E509D395085064
:10087C000AD2A0D2A1D2A2D2A38008C2A0C2A1C285
:08088C00A2C2A3D0D0D0E032DB
:1008C700C2A0C2A1C2A2C2A3C290C291C292C29345
:0F08D700C294C295C296C2977F147E000208E6B3
:100937008F08D290C291C292C293C294C295D296A6
:03094700C2972232
:10094A008F08C290C291D292C293D294C295C29693
:03095A00C297221F
:10095D008F08D290C291D292C293D294C295D29660
:03096D00C297220C
:0309AD003F3F00C9
:1009040053877F75985075C83475CBFF75CADC75ED
:0A091400CDFF75CCDCD2AFD2AC22CF
:03002300020800D0
:10080000C0E0C0F0C083C082C0D075D000C000C0BE
:0D08100001C002C003C004C005C006C0073F
:10081D00309821C29885990AE50AB40A028005E547
:10082D000AB40D0B7BFF7A0979AD1209708005AF03
:04083D000A12099FF3
:10084100D007D006D005D004D003D002D001D0000B
:0B085100D0D0D082D083D0F0D0E032B5
:08099F008F993099FDC29922E5
:1009700012091EFF600C12099F740129F9E43AFA6A
:0309800080EE22E4
:1008E600EF1FAA0670011E4A6013E4FCFDC3ED94D7
:0D08F6007DEC940050EA0DBD00010C80F077
:0109030022D1
:10091E00BB010689828A83E0225002E722BBFE02D7
:09092E00E32289828A83E493220A
:00000001FF
